{
  "_format": "hh-sol-artifact-1",
  "contractName": "BuyMeACoffee",
  "sourceName": "contracts/BuyMeACoffee.sol",
  "abi": [
    {
      "inputs": [],
      "stateMutability": "nonpayable",
      "type": "constructor"
    },
    {
      "anonymous": false,
      "inputs": [
        {
          "indexed": true,
          "internalType": "address",
          "name": "from",
          "type": "address"
        },
        {
          "indexed": false,
          "internalType": "uint256",
          "name": "timestamp",
          "type": "uint256"
        },
        {
          "indexed": false,
          "internalType": "string",
          "name": "name",
          "type": "string"
        },
        {
          "indexed": false,
          "internalType": "string",
          "name": "message",
          "type": "string"
        }
      ],
      "name": "NewMemo",
      "type": "event"
    },
    {
      "inputs": [
        {
          "internalType": "string",
          "name": "_purchaserName",
          "type": "string"
        },
        {
          "internalType": "string",
          "name": "_message",
          "type": "string"
        }
      ],
      "name": "buyCoffee",
      "outputs": [],
      "stateMutability": "payable",
      "type": "function"
    },
    {
      "inputs": [],
      "name": "contractOwner",
      "outputs": [
        {
          "internalType": "address payable",
          "name": "",
          "type": "address"
        }
      ],
      "stateMutability": "view",
      "type": "function"
    },
    {
      "inputs": [],
      "name": "getMemoList",
      "outputs": [
        {
          "components": [
            {
              "internalType": "address",
              "name": "from",
              "type": "address"
            },
            {
              "internalType": "uint256",
              "name": "timestamp",
              "type": "uint256"
            },
            {
              "internalType": "string",
              "name": "name",
              "type": "string"
            },
            {
              "internalType": "string",
              "name": "message",
              "type": "string"
            }
          ],
          "internalType": "struct BuyMeACoffee.Memo[]",
          "name": "",
          "type": "tuple[]"
        }
      ],
      "stateMutability": "view",
      "type": "function"
    },
    {
      "inputs": [
        {
          "internalType": "uint256",
          "name": "",
          "type": "uint256"
        }
      ],
      "name": "memoList",
      "outputs": [
        {
          "internalType": "address",
          "name": "from",
          "type": "address"
        },
        {
          "internalType": "uint256",
          "name": "timestamp",
          "type": "uint256"
        },
        {
          "internalType": "string",
          "name": "name",
          "type": "string"
        },
        {
          "internalType": "string",
          "name": "message",
          "type": "string"
        }
      ],
      "stateMutability": "view",
      "type": "function"
    },
    {
      "inputs": [],
      "name": "withdrawBalance",
      "outputs": [],
      "stateMutability": "nonpayable",
      "type": "function"
    }
  ],
  "bytecode": "0x608060405234801561001057600080fd5b50336000806101000a81548173ffffffffffffffffffffffffffffffffffffffff021916908373ffffffffffffffffffffffffffffffffffffffff160217905550610e50806100606000396000f3fe60806040526004361061004a5760003560e01c806318b81fee1461004f578063204206e11461007a5780635fd8c71014610096578063ce606ee0146100ad578063d2776ec5146100d8575b600080fd5b34801561005b57600080fd5b50610064610118565b6040516100719190610ac6565b60405180910390f35b610094600480360381019061008f91906107cd565b6102fb565b005b3480156100a257600080fd5b506100ab610483565b005b3480156100b957600080fd5b506100c2610519565b6040516100cf9190610a58565b60405180910390f35b3480156100e457600080fd5b506100ff60048036038101906100fa9190610839565b61053d565b60405161010f9493929190610a73565b60405180910390f35b60606001805480602002602001604051908101604052809291908181526020016000905b828210156102f257838290600052602060002090600402016040518060800160405290816000820160009054906101000a900473ffffffffffffffffffffffffffffffffffffffff1673ffffffffffffffffffffffffffffffffffffffff1673ffffffffffffffffffffffffffffffffffffffff168152602001600182015481526020016002820180546101cf90610cb9565b80601f01602080910402602001604051908101604052809291908181526020018280546101fb90610cb9565b80156102485780601f1061021d57610100808354040283529160200191610248565b820191906000526020600020905b81548152906001019060200180831161022b57829003601f168201915b5050505050815260200160038201805461026190610cb9565b80601f016020809104026020016040519081016040528092919081815260200182805461028d90610cb9565b80156102da5780601f106102af576101008083540402835291602001916102da565b820191906000526020600020905b8154815290600101906020018083116102bd57829003601f168201915b5050505050815250508152602001906001019061013c565b50505050905090565b6000341161033e576040517f08c379a000000000000000000000000000000000000000000000000000000000815260040161033590610ae8565b60405180910390fd5b600160405180608001604052803373ffffffffffffffffffffffffffffffffffffffff16815260200142815260200184815260200183815250908060018154018082558091505060019003906000526020600020906004020160009091909190915060008201518160000160006101000a81548173ffffffffffffffffffffffffffffffffffffffff021916908373ffffffffffffffffffffffffffffffffffffffff16021790555060208201518160010155604082015181600201908051906020019061040d9291906106ad565b50606082015181600301908051906020019061042a9291906106ad565b5050503373ffffffffffffffffffffffffffffffffffffffff167fc56140e05f516509ae28110e0f72e17558a7561630dad2647c3ae87d986e365c42848460405161047793929190610b28565b60405180910390a25050565b60008054906101000a900473ffffffffffffffffffffffffffffffffffffffff1673ffffffffffffffffffffffffffffffffffffffff166108fc479081150290604051600060405180830381858888f19350505050610517576040517f08c379a000000000000000000000000000000000000000000000000000000000815260040161050e90610b08565b60405180910390fd5b565b60008054906101000a900473ffffffffffffffffffffffffffffffffffffffff1681565b6001818154811061054d57600080fd5b90600052602060002090600402016000915090508060000160009054906101000a900473ffffffffffffffffffffffffffffffffffffffff169080600101549080600201805461059c90610cb9565b80601f01602080910402602001604051908101604052809291908181526020018280546105c890610cb9565b80156106155780601f106105ea57610100808354040283529160200191610615565b820191906000526020600020905b8154815290600101906020018083116105f857829003601f168201915b50505050509080600301805461062a90610cb9565b80601f016020809104026020016040519081016040528092919081815260200182805461065690610cb9565b80156106a35780601f10610678576101008083540402835291602001916106a3565b820191906000526020600020905b81548152906001019060200180831161068657829003601f168201915b5050505050905084565b8280546106b990610cb9565b90600052602060002090601f0160209004810192826106db5760008555610722565b82601f106106f457805160ff1916838001178555610722565b82800160010185558215610722579182015b82811115610721578251825591602001919060010190610706565b5b50905061072f9190610733565b5090565b5b8082111561074c576000816000905550600101610734565b5090565b600061076361075e84610b92565b610b6d565b90508281526020810184848401111561077b57600080fd5b610786848285610c77565b509392505050565b600082601f83011261079f57600080fd5b81356107af848260208601610750565b91505092915050565b6000813590506107c781610e03565b92915050565b600080604083850312156107e057600080fd5b600083013567ffffffffffffffff8111156107fa57600080fd5b6108068582860161078e565b925050602083013567ffffffffffffffff81111561082357600080fd5b61082f8582860161078e565b9150509250929050565b60006020828403121561084b57600080fd5b6000610859848285016107b8565b91505092915050565b600061086e83836109d0565b905092915050565b61087f81610c3b565b82525050565b61088e81610c29565b82525050565b61089d81610c29565b82525050565b60006108ae82610bd3565b6108b88185610bf6565b9350836020820285016108ca85610bc3565b8060005b8581101561090657848403895281516108e78582610862565b94506108f283610be9565b925060208a019950506001810190506108ce565b50829750879550505050505092915050565b600061092382610bde565b61092d8185610c07565b935061093d818560208601610c86565b61094681610d7a565b840191505092915050565b600061095c82610bde565b6109668185610c18565b9350610976818560208601610c86565b61097f81610d7a565b840191505092915050565b6000610997601a83610c18565b91506109a282610d8b565b602082019050919050565b60006109ba602d83610c18565b91506109c582610db4565b604082019050919050565b60006080830160008301516109e86000860182610885565b5060208301516109fb6020860182610a3a565b5060408301518482036040860152610a138282610918565b91505060608301518482036060860152610a2d8282610918565b9150508091505092915050565b610a4381610c6d565b82525050565b610a5281610c6d565b82525050565b6000602082019050610a6d6000830184610876565b92915050565b6000608082019050610a886000830187610894565b610a956020830186610a49565b8181036040830152610aa78185610951565b90508181036060830152610abb8184610951565b905095945050505050565b60006020820190508181036000830152610ae081846108a3565b905092915050565b60006020820190508181036000830152610b018161098a565b9050919050565b60006020820190508181036000830152610b21816109ad565b9050919050565b6000606082019050610b3d6000830186610a49565b8181036020830152610b4f8185610951565b90508181036040830152610b638184610951565b9050949350505050565b6000610b77610b88565b9050610b838282610ceb565b919050565b6000604051905090565b600067ffffffffffffffff821115610bad57610bac610d4b565b5b610bb682610d7a565b9050602081019050919050565b6000819050602082019050919050565b600081519050919050565b600081519050919050565b6000602082019050919050565b600082825260208201905092915050565b600082825260208201905092915050565b600082825260208201905092915050565b6000610c3482610c4d565b9050919050565b6000610c4682610c4d565b9050919050565b600073ffffffffffffffffffffffffffffffffffffffff82169050919050565b6000819050919050565b82818337600083830152505050565b60005b83811015610ca4578082015181840152602081019050610c89565b83811115610cb3576000848401525b50505050565b60006002820490506001821680610cd157607f821691505b60208210811415610ce557610ce4610d1c565b5b50919050565b610cf482610d7a565b810181811067ffffffffffffffff82111715610d1357610d12610d4b565b5b80604052505050565b7f4e487b7100000000000000000000000000000000000000000000000000000000600052602260045260246000fd5b7f4e487b7100000000000000000000000000000000000000000000000000000000600052604160045260246000fd5b6000601f19601f8301169050919050565b7f43616e27742062757920636f6666656520666f72206672656521000000000000600082015250565b7f4661696c656420746f2073656e642062616c616e636520746f2074686520636f60008201527f6e7472616374206f776e65722e00000000000000000000000000000000000000602082015250565b610e0c81610c6d565b8114610e1757600080fd5b5056fea2646970667358221220b0bd953e6c969a373ecaf5e8a468eaf5a4ac8cc085c97d0d269cf7cbc3d8807064736f6c63430008040033",
  "linkReferences": {},
  "deployedLinkReferences": {}
}